:020000040800F2
:100000007006002089010008170500084504000853
:100010001505000843020008230500080000000041
:100020000000000000000000000000001B050008A8
:100030004502000800000000190500081D05000821
:10004000A3010008A3010008A3010008A301000800
:10005000A3010008A3010008A3010008A3010008F0
:10006000A3010008A3010008A3010008A3010008E0
:10007000A3010008A3010008A3010008A3010008D0
:10008000A3010008A3010008A3010008A3010008C0
:10009000A3010008A3010008A3010008A3010008B0
:1000A000A3010008A3010008A3010008A3010008A0
:1000B000A3010008A3010008A3010008A301000890
:1000C000A3010008A3010008A3010008A301000880
:1000D000A3010008A3010008A3010008A301000870
:1000E000A3010008A3010008A301000800F002F822
:1000F00000F03AF80AA090E8000C82448344AAF188
:100100000107DA4501D100F02FF8AFF2090EBAE885
:100110000F0013F0010F18BFFB1A43F0010318473B
:10012000B0040000D0040000103A24BF78C878C1A1
:10013000FAD8520724BF30C830C144BF04680C60ED
:10014000704700000023002400250026103A28BF35
:1001500078C1FBD8520728BF30C148BF0B60704739
:100160001FB51FBD10B510BD00F031F81146FFF7E7
:10017000F7FF00F0E9F900F04FF803B4FFF7F2FFE2
:1001800003BC00F057F800000948804709480047C1
:10019000FEE7FEE7FEE7FEE7FEE7FEE7FEE7FEE737
:1001A000FEE7FEE704480549054A064B7047000094
:1001B00021050008ED0000087000002070060020F6
:1001C000700200207002002070477047704775462B
:1001D00000F02CF8AE4605006946534620F00700B3
:1001E000854618B020B5FFF7DDFFBDE820404FF091
:1001F00000064FF000074FF000084FF0000B21F011
:100200000701AC46ACE8C009ACE8C009ACE8C009DD
:10021000ACE8C0098D46704710B50446AFF30080C6
:100220002046BDE81040FFF7A8BF00000048704717
:100230000C00002001491820ABBEFEE7260002009A
:100240007047FEE7704700002DE9F84FDFF8B891DE
:10025000002409F1040A0AF1040B23460F270BF1CD
:10026000040EC9E00125A5402A40AA427DD1674E6F
:10027000D1F804C0ACEB0608B44532D014DCBCF1B4
:10028000030F3AD009DCBCF1000F2AD0BCF1010FFA
:100290001CD0BCF1020F31D11DE0BCF1110F17D001
:1002A000BCF1120F2AD119E0B8F5881F19D006DC6D
:1002B000B8F5803F15D0B8F5801F1FD111E0B8F513
:1002C000001F0ED0B8F5041F18D10AE0CB6815E066
:1002D000CB681B1D12E0CB6808330FE0CB680C33F2
:1002E0000CE08B682BB1012B4FF0080303D0456164
:1002F00004E0042302E0056100E00023FF2A01D8A6
:10030000064601E000F104064FEA840501D9A5F193
:100310002005D6F8008007FA05FC28EA0C0803FA45
:1003200005F548EA0508C6F800804D68ED0062D57D
:10033000374DAE6946F00106AE61AD6924F00306A3
:1003400005F001050095334D06EB050CDCF808506F
:10035000A607360F07FA06F825EA0805DFF8B88081
:10036000404503D14FF0000817E044E0DFF8AC80CF
:10037000404502D14FF001080FE0DFF8A48040456E
:1003800002D14FF0020808E0DFF89880404502D122
:100390004FF0030801E04FF0040808FA06F848EAB5
:1003A0000508CCF808804D68D9F80060ED034D468B
:1003B00001D5164300E096432E604D68DAF80060E0
:1003C000AD03554601D5164300E096432E604D68B7
:1003D000DBF80060ED025D4601D5164300E0964370
:1003E0002E604D68DEF80060AD02754601D51643FB
:1003F00000E096432E60641C0D682A46E5407FF4B9
:1004000031AFBDE8F88F000000040140000011107A
:10041000001002400000014000080140000C0140B3
:1004200000100140001401400AB101617047090445
:10043000FBE7000002488168027811448160704740
:1004400000000020FEE700002DE9F04186B000200A
:1004500000900190029003902A48816941F01001B8
:100460008161816901F010010491816941F02001ED
:100470008161816901F020010491816941F00401E9
:100480008161816901F004010491816941F00801F1
:10049000816180691C4E00F008004FF48044049094
:1004A000002221463046FFF7BFFF184F00221021DF
:1004B0003846FFF7B9FFDFF8588000222021404678
:1004C000FFF7B2FF009401240325694630460194EA
:1004D000CDE90245FFF7B8FE1020CDE900046946DA
:1004E0003846CDE90245FFF7AFFE2020CDE90004F4
:1004F00069464046CDE90245FFF7A6FE06B0BDE8D5
:10050000F08100000010024000100140000801408E
:10051000000C0140FEE7FEE770477047FFF78ABF17
:100520007047FEE74FF4FA5148434FF0E02148612D
:100530000020886101220A610A69D30701D0D20331
:10054000FAD5086188617047FFF77EFF1D4D1E4E8A
:100550001E4F4FF48044012221462846FFF764FFD6
:10056000002210213046FFF75FFF0022202138468D
:10057000FFF75AFF6420FFF7D5FF002221462846E7
:10058000FFF752FF012210213046FFF74DFF0022F6
:1005900020213846FFF748FF6420FFF7C3FF002201
:1005A00021462846FFF740FF002210213046FFF782
:1005B0003BFF012220213846FFF736FF6420FFF77A
:1005C000B1FFC8E70010014000080140000C0140E5
:1005D000F0050008000000200C00000028010008C1
:1005E000FC0500080C00002064060000440100081F
:0C05F000010000001000000000000000EE
:04000005080000ED02
:00000001FF
